{
  "contractName": "HelloBlockchain",
  "abi": [
    {
      "constant": true,
      "inputs": [],
      "name": "greeting",
      "outputs": [
        {
          "internalType": "string",
          "name": "",
          "type": "string"
        }
      ],
      "payable": false,
      "stateMutability": "pure",
      "type": "function"
    }
  ],
  "bytecode": "0x608060405234801561001057600080fd5b5061011d806100206000396000f3fe6080604052348015600f57600080fd5b506004361060285760003560e01c8063ef690cc014602d575b600080fd5b603360ab565b6040518080602001828103825283818151815260200191508051906020019080838360005b8381101560715780820151818401526020810190506058565b50505050905090810190601f168015609d5780820380516001836020036101000a031916815260200191505b509250505060405180910390f35b60606040518060400160405280601b81526020017f48656c6c6f2c2066726f6d2074686520626c6f636b636861696e21000000000081525090509056fea265627a7a72315820c284210b8f59b4433b701f3e01d48792eef5e9e2fdcac854c6c73431e17f709e64736f6c63430005100032",
  "source": "// SPDX-License-Identifier: GPL-3.0\n\npragma solidity >=0.4.22 <0.9.0;\n\ncontract HelloBlockchain {\n\n  function greeting() public pure returns (string memory) {\n    return \"Hello, from the blockchain!\";\n  }\n\n}",
  "sourcePath": "/Users/juan/Documents/Learning/Blockchain/hello-blockchain/contracts/HelloBlokchain.sol",
  "compiler": {
    "name": "solc",
    "version": "0.5.16+commit.9c3226ce.Emscripten.clang"
  },
  "schemaVersion": "3.4.3",
  "updatedAt": "2021-11-06T02:19:14.960Z",
  "networkType": "ethereum",
  "devdoc": {
    "methods": {}
  },
  "userdoc": {
    "methods": {}
  }
}